{
  "contractName": "AmbulanceBounties",
  "abi": [
    {
      "inputs": [],
      "stateMutability": "nonpayable",
      "type": "constructor"
    },
    {
      "inputs": [
        {
          "internalType": "uint256",
          "name": "",
          "type": "uint256"
        }
      ],
      "name": "bounties",
      "outputs": [
        {
          "internalType": "string",
          "name": "",
          "type": "string"
        }
      ],
      "stateMutability": "view",
      "type": "function",
      "constant": true
    },
    {
      "inputs": [
        {
          "internalType": "string",
          "name": "",
          "type": "string"
        }
      ],
      "name": "bountyMapping",
      "outputs": [
        {
          "internalType": "address payable",
          "name": "bountyPoster",
          "type": "address"
        },
        {
          "internalType": "address payable",
          "name": "bountyAccepter",
          "type": "address"
        },
        {
          "internalType": "enum AmbulanceBounties.BountyStatus",
          "name": "status",
          "type": "uint8"
        },
        {
          "internalType": "uint256",
          "name": "postDate",
          "type": "uint256"
        },
        {
          "internalType": "uint256",
          "name": "dueDate",
          "type": "uint256"
        },
        {
          "internalType": "string",
          "name": "location",
          "type": "string"
        },
        {
          "internalType": "uint256",
          "name": "maxBid",
          "type": "uint256"
        },
        {
          "internalType": "uint256",
          "name": "penalty",
          "type": "uint256"
        },
        {
          "internalType": "uint256",
          "name": "finalBid",
          "type": "uint256"
        }
      ],
      "stateMutability": "view",
      "type": "function",
      "constant": true
    },
    {
      "inputs": [],
      "name": "greet",
      "outputs": [
        {
          "internalType": "string",
          "name": "",
          "type": "string"
        }
      ],
      "stateMutability": "view",
      "type": "function",
      "constant": true
    },
    {
      "inputs": [
        {
          "internalType": "string",
          "name": "hash",
          "type": "string"
        },
        {
          "internalType": "uint256",
          "name": "timeLimit",
          "type": "uint256"
        },
        {
          "internalType": "string",
          "name": "location",
          "type": "string"
        },
        {
          "internalType": "address[]",
          "name": "allowedHospitals",
          "type": "address[]"
        },
        {
          "internalType": "uint256",
          "name": "penalty",
          "type": "uint256"
        }
      ],
      "name": "postBounty",
      "outputs": [],
      "stateMutability": "payable",
      "type": "function",
      "payable": true
    },
    {
      "inputs": [
        {
          "internalType": "string",
          "name": "hash",
          "type": "string"
        },
        {
          "internalType": "bytes32",
          "name": "hashedAmount",
          "type": "bytes32"
        }
      ],
      "name": "bid",
      "outputs": [
        {
          "internalType": "uint256",
          "name": "index",
          "type": "uint256"
        }
      ],
      "stateMutability": "nonpayable",
      "type": "function"
    },
    {
      "inputs": [
        {
          "internalType": "string",
          "name": "hash",
          "type": "string"
        },
        {
          "internalType": "uint256",
          "name": "bidValue",
          "type": "uint256"
        },
        {
          "internalType": "uint256",
          "name": "salt",
          "type": "uint256"
        },
        {
          "internalType": "uint256",
          "name": "index",
          "type": "uint256"
        }
      ],
      "name": "revealBid",
      "outputs": [],
      "stateMutability": "payable",
      "type": "function",
      "payable": true
    },
    {
      "inputs": [
        {
          "internalType": "string",
          "name": "hash",
          "type": "string"
        }
      ],
      "name": "verifyDelivery",
      "outputs": [],
      "stateMutability": "nonpayable",
      "type": "function"
    },
    {
      "inputs": [
        {
          "internalType": "string",
          "name": "hash",
          "type": "string"
        }
      ],
      "name": "reclaimBounty",
      "outputs": [],
      "stateMutability": "nonpayable",
      "type": "function"
    },
    {
      "inputs": [
        {
          "internalType": "string",
          "name": "hash",
          "type": "string"
        }
      ],
      "name": "retractBounty",
      "outputs": [],
      "stateMutability": "nonpayable",
      "type": "function"
    },
    {
      "inputs": [
        {
          "internalType": "address",
          "name": "ambulance",
          "type": "address"
        }
      ],
      "name": "addAmbulance",
      "outputs": [],
      "stateMutability": "nonpayable",
      "type": "function"
    },
    {
      "inputs": [
        {
          "internalType": "address",
          "name": "ambulance",
          "type": "address"
        }
      ],
      "name": "removeAmbulance",
      "outputs": [],
      "stateMutability": "nonpayable",
      "type": "function"
    },
    {
      "inputs": [
        {
          "internalType": "address",
          "name": "police",
          "type": "address"
        }
      ],
      "name": "addPolice",
      "outputs": [],
      "stateMutability": "nonpayable",
      "type": "function"
    },
    {
      "inputs": [
        {
          "internalType": "address",
          "name": "police",
          "type": "address"
        }
      ],
      "name": "removePolice",
      "outputs": [],
      "stateMutability": "nonpayable",
      "type": "function"
    },
    {
      "inputs": [
        {
          "internalType": "address",
          "name": "hospital",
          "type": "address"
        }
      ],
      "name": "addHospital",
      "outputs": [],
      "stateMutability": "nonpayable",
      "type": "function"
    },
    {
      "inputs": [
        {
          "internalType": "address",
          "name": "hospital",
          "type": "address"
        }
      ],
      "name": "removeHospital",
      "outputs": [],
      "stateMutability": "nonpayable",
      "type": "function"
    }
  ],
  "bytecode": "0x60806040526040518060400160405280600b81526020017f48656c6c6f20576f726c640000000000000000000000000000000000000000008152506006908051906020019062000051929190620000a6565b503480156200005f57600080fd5b50336000806101000a81548173ffffffffffffffffffffffffffffffffffffffff021916908373ffffffffffffffffffffffffffffffffffffffff1602179055506200015c565b828054600181600116156101000203166002900490600052602060002090601f016020900481019282620000de57600085556200012a565b82601f10620000f957805160ff19168380011785556200012a565b828001600101855582156200012a579182015b82811115620001295782518255916020019190600101906200010c565b5b5090506200013991906200013d565b5090565b5b80821115620001585760008160009055506001016200013e565b5090565b6147ff806200016c6000396000f3fe6080604052600436106100e85760003560e01c80638e52c5671161008a578063c2b2960711610059578063c2b29607146109f2578063cfae321714610a43578063dc2f874414610ad3578063ff8491de14610b87576100e8565b80638e52c56714610617578063908c4405146106df5780639a9b0f63146107a7578063a9698906146109a1576100e8565b806357475b3e116100c657806357475b3e146101e05780636af7768f146102b957806380e304e41461046957806384df335314610531576100e8565b80631b470bc7146100ed5780632a84b3e41461013e57806331e5ecaa1461018f575b600080fd5b3480156100f957600080fd5b5061013c6004803603602081101561011057600080fd5b81019080803573ffffffffffffffffffffffffffffffffffffffff169060200190929190505050610bd8565b005b34801561014a57600080fd5b5061018d6004803603602081101561016157600080fd5b81019080803573ffffffffffffffffffffffffffffffffffffffff169060200190929190505050610ce9565b005b34801561019b57600080fd5b506101de600480360360208110156101b257600080fd5b81019080803573ffffffffffffffffffffffffffffffffffffffff169060200190929190505050610df9565b005b6102b7600480360360808110156101f657600080fd5b810190808035906020019064010000000081111561021357600080fd5b82018360208201111561022557600080fd5b8035906020019184600183028401116401000000008311171561024757600080fd5b91908080601f016020809104026020016040519081016040528093929190818152602001838380828437600081840152601f19601f820116905080830192505050505050509192919290803590602001909291908035906020019092919080359060200190929190505050610f0a565b005b3480156102c557600080fd5b5061037f600480360360208110156102dc57600080fd5b81019080803590602001906401000000008111156102f957600080fd5b82018360208201111561030b57600080fd5b8035906020019184600183028401116401000000008311171561032d57600080fd5b91908080601f016020809104026020016040519081016040528093929190818152602001838380828437600081840152601f19601f820116905080830192505050505050509192919290505050611c65565b604051808a73ffffffffffffffffffffffffffffffffffffffff1681526020018973ffffffffffffffffffffffffffffffffffffffff1681526020018860028111156103c757fe5b815260200187815260200186815260200180602001858152602001848152602001838152602001828103825286818151815260200191508051906020019080838360005b8381101561042657808201518184015260208101905061040b565b50505050905090810190601f1680156104535780820380516001836020036101000a031916815260200191505b509a505050505050505050505060405180910390f35b34801561047557600080fd5b5061052f6004803603602081101561048c57600080fd5b81019080803590602001906401000000008111156104a957600080fd5b8201836020820111156104bb57600080fd5b803590602001918460018302840111640100000000831117156104dd57600080fd5b91908080601f016020809104026020016040519081016040528093929190818152602001838380828437600081840152601f19601f820116905080830192505050505050509192919290505050611dae565b005b34801561053d57600080fd5b506106016004803603604081101561055457600080fd5b810190808035906020019064010000000081111561057157600080fd5b82018360208201111561058357600080fd5b803590602001918460018302840111640100000000831117156105a557600080fd5b91908080601f016020809104026020016040519081016040528093929190818152602001838380828437600081840152601f19601f82011690508083019250505050505050919291929080359060200190929190505050612205565b6040518082815260200191505060405180910390f35b34801561062357600080fd5b506106dd6004803603602081101561063a57600080fd5b810190808035906020019064010000000081111561065757600080fd5b82018360208201111561066957600080fd5b8035906020019184600183028401116401000000008311171561068b57600080fd5b91908080601f016020809104026020016040519081016040528093929190818152602001838380828437600081840152601f19601f8201169050808301925050505050505091929192905050506127d9565b005b3480156106eb57600080fd5b506107a56004803603602081101561070257600080fd5b810190808035906020019064010000000081111561071f57600080fd5b82018360208201111561073157600080fd5b8035906020019184600183028401116401000000008311171561075357600080fd5b91908080601f016020809104026020016040519081016040528093929190818152602001838380828437600081840152601f19601f820116905080830192505050505050509192919290505050613338565b005b61099f600480360360a08110156107bd57600080fd5b81019080803590602001906401000000008111156107da57600080fd5b8201836020820111156107ec57600080fd5b8035906020019184600183028401116401000000008311171561080e57600080fd5b91908080601f016020809104026020016040519081016040528093929190818152602001838380828437600081840152601f19601f820116905080830192505050505050509192919290803590602001909291908035906020019064010000000081111561087b57600080fd5b82018360208201111561088d57600080fd5b803590602001918460018302840111640100000000831117156108af57600080fd5b91908080601f016020809104026020016040519081016040528093929190818152602001838380828437600081840152601f19601f8201169050808301925050505050505091929192908035906020019064010000000081111561091257600080fd5b82018360208201111561092457600080fd5b8035906020019184602083028401116401000000008311171561094657600080fd5b919080806020026020016040519081016040528093929190818152602001838360200280828437600081840152601f19601f820116905080830192505050505050509192919290803590602001909291905050506135e2565b005b3480156109ad57600080fd5b506109f0600480360360208110156109c457600080fd5b81019080803573ffffffffffffffffffffffffffffffffffffffff1690602001909291905050506139aa565b005b3480156109fe57600080fd5b50610a4160048036036020811015610a1557600080fd5b81019080803573ffffffffffffffffffffffffffffffffffffffff169060200190929190505050613abb565b005b348015610a4f57600080fd5b50610a58613bcc565b6040518080602001828103825283818151815260200191508051906020019080838360005b83811015610a98578082015181840152602081019050610a7d565b50505050905090810190601f168015610ac55780820380516001836020036101000a031916815260200191505b509250505060405180910390f35b348015610adf57600080fd5b50610b0c60048036036020811015610af657600080fd5b8101908080359060200190929190505050613c6e565b6040518080602001828103825283818151815260200191508051906020019080838360005b83811015610b4c578082015181840152602081019050610b31565b50505050905090810190601f168015610b795780820380516001836020036101000a031916815260200191505b509250505060405180910390f35b348015610b9357600080fd5b50610bd660048036036020811015610baa57600080fd5b81019080803573ffffffffffffffffffffffffffffffffffffffff169060200190929190505050613d2a565b005b60008054906101000a900473ffffffffffffffffffffffffffffffffffffffff1673ffffffffffffffffffffffffffffffffffffffff163373ffffffffffffffffffffffffffffffffffffffff1614610c3057600080fd5b60011515600360008373ffffffffffffffffffffffffffffffffffffffff1673ffffffffffffffffffffffffffffffffffffffff16815260200190815260200160002060009054906101000a900460ff1615151415610c8e57600080fd5b6001600360008373ffffffffffffffffffffffffffffffffffffffff1673ffffffffffffffffffffffffffffffffffffffff16815260200190815260200160002060006101000a81548160ff02191690831515021790555050565b60008054906101000a900473ffffffffffffffffffffffffffffffffffffffff1673ffffffffffffffffffffffffffffffffffffffff163373ffffffffffffffffffffffffffffffffffffffff1614610d4157600080fd5b60011515600160008373ffffffffffffffffffffffffffffffffffffffff1673ffffffffffffffffffffffffffffffffffffffff16815260200190815260200160002060009054906101000a900460ff1615151415610d9f57600080fd5b60018060008373ffffffffffffffffffffffffffffffffffffffff1673ffffffffffffffffffffffffffffffffffffffff16815260200190815260200160002060006101000a81548160ff02191690831515021790555050565b60008054906101000a900473ffffffffffffffffffffffffffffffffffffffff1673ffffffffffffffffffffffffffffffffffffffff163373ffffffffffffffffffffffffffffffffffffffff1614610e5157600080fd5b60001515600260008373ffffffffffffffffffffffffffffffffffffffff1673ffffffffffffffffffffffffffffffffffffffff16815260200190815260200160002060009054906101000a900460ff1615151415610eaf57600080fd5b6000600260008373ffffffffffffffffffffffffffffffffffffffff1673ffffffffffffffffffffffffffffffffffffffff16815260200190815260200160002060006101000a81548160ff02191690831515021790555050565b600160003373ffffffffffffffffffffffffffffffffffffffff1673ffffffffffffffffffffffffffffffffffffffff16815260200190815260200160002060009054906101000a900460ff16610fc9576040517f08c379a00000000000000000000000000000000000000000000000000000000081526004018080602001828103825260158152602001807f53656e646572206e6f7420617574686f72697a6564000000000000000000000081525060200191505060405180910390fd5b601e806005866040518082805190602001908083835b602083106110025780518252602082019150602081019050602083039250610fdf565b6001836020036101000a038019825116818451168082178552505050505050905001915050908152602001604051809103902060020154010142106110af576040517f08c379a00000000000000000000000000000000000000000000000000000000081526004018080602001828103825260198152602001807f5468652072657665616c20706572696f64206973206f7665720000000000000081525060200191505060405180910390fd5b601e6005856040518082805190602001908083835b602083106110e757805182526020820191506020810190506020830392506110c4565b6001836020036101000a03801982511681845116808217855250505050505090500191505090815260200160405180910390206002015401421015611177576040517f08c379a00000000000000000000000000000000000000000000000000000000081526004018080602001828103825260258152602001806147396025913960400191505060405180910390fd5b60028081111561118357fe5b6005856040518082805190602001908083835b602083106111b95780518252602082019150602081019050602083039250611196565b6001836020036101000a038019825116818451168082178552505050505050905001915050908152602001604051809103902060010160149054906101000a900460ff16600281111561120857fe5b1461127b576040517f08c379a00000000000000000000000000000000000000000000000000000000081526004018080602001828103825260178152602001807f5468697320626f756e7479206973206e6f74206f70656e00000000000000000081525060200191505060405180910390fd5b6005846040518082805190602001908083835b602083106112b1578051825260208201915060208101905060208303925061128e565b6001836020036101000a0380198251168184511680821785525050505050509050019150509081526020016040518091039020600a0154831061135c576040517f08c379a00000000000000000000000000000000000000000000000000000000081526004018080602001828103825260148152602001807f546869732062696420697320746f6f206869676800000000000000000000000081525060200191505060405180910390fd5b6005846040518082805190602001908083835b60208310611392578051825260208201915060208101905060208303925061136f565b6001836020036101000a038019825116818451168082178552505050505050905001915050908152602001604051809103902060060154831061143d576040517f08c379a00000000000000000000000000000000000000000000000000000000081526004018080602001828103825260148152602001807f546869732062696420697320746f6f206869676800000000000000000000000081525060200191505060405180910390fd5b6005846040518082805190602001908083835b602083106114735780518252602082019150602081019050602083039250611450565b6001836020036101000a038019825116818451168082178552505050505050905001915050908152602001604051809103902060080181815481106114b457fe5b9060005260206000200160009054906101000a900473ffffffffffffffffffffffffffffffffffffffff1673ffffffffffffffffffffffffffffffffffffffff163373ffffffffffffffffffffffffffffffffffffffff161461157f576040517f08c379a000000000000000000000000000000000000000000000000000000000815260040180806020018281038252601a8152602001807f57726f6e6720696e64657820696e20626964646572206c69737400000000000081525060200191505060405180910390fd5b346005856040518082805190602001908083835b602083106115b65780518252602082019150602081019050602083039250611593565b6001836020036101000a03801982511681845116808217855250505050505090500191505090815260200160405180910390206007015414611643576040517f08c379a00000000000000000000000000000000000000000000000000000000081526004018080602001828103825260378152602001806147026037913960400191505060405180910390fd5b600a61164e83613e3b565b51146116c2576040517f08c379a000000000000000000000000000000000000000000000000000000000815260040180806020018281038252601e8152602001807f53616c74206973206e6f742074686520636f7272656374206c656e677468000081525060200191505060405180910390fd5b6116dc6116ce84613e3b565b6116d784613e3b565b613f7f565b6040516020018080602001828103825283818151815260200191508051906020019080838360005b8381101561171f578082015181840152602081019050611704565b50505050905090810190601f16801561174c5780820380516001836020036101000a031916815260200191505b5092505050604051602081830303815290604052805190602001206005856040518082805190602001908083835b6020831061179d578051825260208201915060208101905060208303925061177a565b6001836020036101000a038019825116818451168082178552505050505050905001915050908152602001604051809103902060090182815481106117de57fe5b90600052602060002001541461183f576040517f08c379a00000000000000000000000000000000000000000000000000000000081526004018080602001828103825260258152602001806147a56025913960400191505060405180910390fd5b60006005856040518082805190602001908083835b602083106118775780518252602082019150602081019050602083039250611854565b6001836020036101000a03801982511681845116808217855250505050505090500191505090815260200160405180910390209050600073ffffffffffffffffffffffffffffffffffffffff168160010160009054906101000a900473ffffffffffffffffffffffffffffffffffffffff1673ffffffffffffffffffffffffffffffffffffffff16146119dc578060010160009054906101000a900473ffffffffffffffffffffffffffffffffffffffff1673ffffffffffffffffffffffffffffffffffffffff166108fc6005876040518082805190602001908083835b602083106119785780518252602082019150602081019050602083039250611955565b6001836020036101000a0380198251168184511680821785525050505050509050019150509081526020016040518091039020600701549081150290604051600060405180830381858888f193505050501580156119da573d6000803e3d6000fd5b505b60018160010160146101000a81548160ff021916908360028111156119fd57fe5b0217905550338160010160006101000a81548173ffffffffffffffffffffffffffffffffffffffff021916908373ffffffffffffffffffffffffffffffffffffffff1602179055508381600a0181905550806005866040518082805190602001908083835b60208310611a855780518252602082019150602081019050602083039250611a62565b6001836020036101000a03801982511681845116808217855250505050505090500191505090815260200160405180910390206000820160009054906101000a900473ffffffffffffffffffffffffffffffffffffffff168160000160006101000a81548173ffffffffffffffffffffffffffffffffffffffff021916908373ffffffffffffffffffffffffffffffffffffffff1602179055506001820160009054906101000a900473ffffffffffffffffffffffffffffffffffffffff168160010160006101000a81548173ffffffffffffffffffffffffffffffffffffffff021916908373ffffffffffffffffffffffffffffffffffffffff1602179055506001820160149054906101000a900460ff168160010160146101000a81548160ff02191690836002811115611bb757fe5b0217905550600282015481600201556003820154816003015560048201816004019080546001816001161561010002031660029004611bf79291906142b4565b506005820181600501908054611c0e929190614349565b5060068201548160060155600782015481600701556008820181600801908054611c39929190614349565b506009820181600901908054611c5092919061439b565b50600a82015481600a01559050505050505050565b6005818051602081018201805184825260208301602085012081835280955050505050506000915090508060000160009054906101000a900473ffffffffffffffffffffffffffffffffffffffff16908060010160009054906101000a900473ffffffffffffffffffffffffffffffffffffffff16908060010160149054906101000a900460ff1690806002015490806003015490806004018054600181600116156101000203166002900480601f016020809104026020016040519081016040528092919081815260200182805460018160011615610100020316600290048015611d925780601f10611d6757610100808354040283529160200191611d92565b820191906000526020600020905b815481529060010190602001808311611d7557829003601f168201915b50505050509080600601549080600701549080600a0154905089565b3373ffffffffffffffffffffffffffffffffffffffff166005826040518082805190602001908083835b60208310611dfb5780518252602082019150602081019050602083039250611dd8565b6001836020036101000a038019825116818451168082178552505050505050905001915050908152602001604051809103902060000160009054906101000a900473ffffffffffffffffffffffffffffffffffffffff1673ffffffffffffffffffffffffffffffffffffffff1614611e7257600080fd5b60016002811115611e7f57fe5b6005826040518082805190602001908083835b60208310611eb55780518252602082019150602081019050602083039250611e92565b6001836020036101000a038019825116818451168082178552505050505050905001915050908152602001604051809103902060010160149054906101000a900460ff166002811115611f0457fe5b14611f0e57600080fd5b600073ffffffffffffffffffffffffffffffffffffffff166005826040518082805190602001908083835b60208310611f5c5780518252602082019150602081019050602083039250611f39565b6001836020036101000a038019825116818451168082178552505050505050905001915050908152602001604051809103902060010160009054906101000a900473ffffffffffffffffffffffffffffffffffffffff1673ffffffffffffffffffffffffffffffffffffffff161415611fd457600080fd5b426005826040518082805190602001908083835b6020831061200b5780518252602082019150602081019050602083039250611fe8565b6001836020036101000a0380198251168184511680821785525050505050509050019150509081526020016040518091039020600301541161204c57600080fd5b6005816040518082805190602001908083835b60208310612082578051825260208201915060208101905060208303925061205f565b6001836020036101000a038019825116818451168082178552505050505050905001915050908152602001604051809103902060000160009054906101000a900473ffffffffffffffffffffffffffffffffffffffff1673ffffffffffffffffffffffffffffffffffffffff166108fc6005836040518082805190602001908083835b602083106121285780518252602082019150602081019050602083039250612105565b6001836020036101000a0380198251168184511680821785525050505050509050019150509081526020016040518091039020600701546005846040518082805190602001908083835b602083106121955780518252602082019150602081019050602083039250612172565b6001836020036101000a038019825116818451168082178552505050505050905001915050908152602001604051809103902060060154019081150290604051600060405180830381858888f193505050501580156121f8573d6000803e3d6000fd5b5061220281614047565b50565b6000600160003373ffffffffffffffffffffffffffffffffffffffff1673ffffffffffffffffffffffffffffffffffffffff16815260200190815260200160002060009054906101000a900460ff166122c6576040517f08c379a00000000000000000000000000000000000000000000000000000000081526004018080602001828103825260158152602001807f53656e646572206e6f7420617574686f72697a6564000000000000000000000081525060200191505060405180910390fd5b6002808111156122d257fe5b6005846040518082805190602001908083835b6020831061230857805182526020820191506020810190506020830392506122e5565b6001836020036101000a038019825116818451168082178552505050505050905001915050908152602001604051809103902060010160149054906101000a900460ff16600281111561235757fe5b146123ca576040517f08c379a00000000000000000000000000000000000000000000000000000000081526004018080602001828103825260178152602001807f5468697320626f756e7479206973206e6f74206f70656e00000000000000000081525060200191505060405180910390fd5b601e6005846040518082805190602001908083835b6020831061240257805182526020820191506020810190506020830392506123df565b6001836020036101000a0380198251168184511680821785525050505050509050019150509081526020016040518091039020600201540142106124ae576040517f08c379a000000000000000000000000000000000000000000000000000000000815260040180806020018281038252601a8152602001807f5468652062696464696e6720706572696f64206973206f76657200000000000081525060200191505060405180910390fd5b6125a86005846040518082805190602001908083835b602083106124e757805182526020820191506020810190506020830392506124c4565b6001836020036101000a038019825116818451168082178552505050505050905001915050908152602001604051809103902060080180548060200260200160405190810160405280929190818152602001828054801561259d57602002820191906000526020600020905b8160009054906101000a900473ffffffffffffffffffffffffffffffffffffffff1673ffffffffffffffffffffffffffffffffffffffff1681526020019060010190808311612553575b505050505033614239565b156125fe576040517f08c379a00000000000000000000000000000000000000000000000000000000081526004018080602001828103825260228152602001806147836022913960400191505060405180910390fd5b6005836040518082805190602001908083835b602083106126345780518252602082019150602081019050602083039250612611565b6001836020036101000a0380198251168184511680821785525050505050509050019150509081526020016040518091039020600801339080600181540180825580915050600190039060005260206000200160009091909190916101000a81548173ffffffffffffffffffffffffffffffffffffffff021916908373ffffffffffffffffffffffffffffffffffffffff1602179055506005836040518082805190602001908083835b6020831061270157805182526020820191506020810190506020830392506126de565b6001836020036101000a038019825116818451168082178552505050505050905001915050908152602001604051809103902060090182908060018154018082558091505060019003906000526020600020016000909190919091505560016005846040518082805190602001908083835b602083106127965780518252602082019150602081019050602083039250612773565b6001836020036101000a03801982511681845116808217855250505050505090500191505090815260200160405180910390206008018054905003905092915050565b600360003373ffffffffffffffffffffffffffffffffffffffff1673ffffffffffffffffffffffffffffffffffffffff16815260200190815260200160002060009054906101000a900460ff16612898576040517f08c379a00000000000000000000000000000000000000000000000000000000081526004018080602001828103825260158152602001807f53656e646572206e6f7420617574686f72697a6564000000000000000000000081525060200191505060405180910390fd5b600160028111156128a557fe5b6005826040518082805190602001908083835b602083106128db57805182526020820191506020810190506020830392506128b8565b6001836020036101000a038019825116818451168082178552505050505050905001915050908152602001604051809103902060010160149054906101000a900460ff16600281111561292a57fe5b1461299d576040517f08c379a00000000000000000000000000000000000000000000000000000000081526004018080602001828103825260168152602001807f426f756e7479206e6f7420696e2070726f67726573730000000000000000000081525060200191505060405180910390fd5b601e806005836040518082805190602001908083835b602083106129d657805182526020820191506020810190506020830392506129b3565b6001836020036101000a03801982511681845116808217855250505050505090500191505090815260200160405180910390206002015401014211612a66576040517f08c379a000000000000000000000000000000000000000000000000000000000815260040180806020018281038252602581526020018061475e6025913960400191505060405180910390fd5b6005816040518082805190602001908083835b60208310612a9c5780518252602082019150602081019050602083039250612a79565b6001836020036101000a0380198251168184511680821785525050505050509050019150509081526020016040518091039020600301544210612b47576040517f08c379a00000000000000000000000000000000000000000000000000000000081526004018080602001828103825260128152602001807f426f756e7479206861732065787069726564000000000000000000000000000081525060200191505060405180910390fd5b612c416005826040518082805190602001908083835b60208310612b805780518252602082019150602081019050602083039250612b5d565b6001836020036101000a0380198251168184511680821785525050505050509050019150509081526020016040518091039020600501805480602002602001604051908101604052809291908181526020018280548015612c3657602002820191906000526020600020905b8160009054906101000a900473ffffffffffffffffffffffffffffffffffffffff1673ffffffffffffffffffffffffffffffffffffffff1681526020019060010190808311612bec575b505050505033614239565b612c4a57600080fd5b6005816040518082805190602001908083835b60208310612c805780518252602082019150602081019050602083039250612c5d565b6001836020036101000a038019825116818451168082178552505050505050905001915050908152602001604051809103902060010160009054906101000a900473ffffffffffffffffffffffffffffffffffffffff1673ffffffffffffffffffffffffffffffffffffffff166108fc6005836040518082805190602001908083835b60208310612d265780518252602082019150602081019050602083039250612d03565b6001836020036101000a0380198251168184511680821785525050505050509050019150509081526020016040518091039020600701546005846040518082805190602001908083835b60208310612d935780518252602082019150602081019050602083039250612d70565b6001836020036101000a0380198251168184511680821785525050505050509050019150509081526020016040518091039020600a0154019081150290604051600060405180830381858888f19350505050158015612df6573d6000803e3d6000fd5b5060006005826040518082805190602001908083835b60208310612e2f5780518252602082019150602081019050602083039250612e0c565b6001836020036101000a0380198251168184511680821785525050505050509050019150509081526020016040518091039020600a01546005836040518082805190602001908083835b60208310612e9c5780518252602082019150602081019050602083039250612e79565b6001836020036101000a038019825116818451168082178552505050505050905001915050908152602001604051809103902060060154031115613088576005816040518082805190602001908083835b60208310612f105780518252602082019150602081019050602083039250612eed565b6001836020036101000a038019825116818451168082178552505050505050905001915050908152602001604051809103902060000160009054906101000a900473ffffffffffffffffffffffffffffffffffffffff1673ffffffffffffffffffffffffffffffffffffffff166108fc6005836040518082805190602001908083835b60208310612fb65780518252602082019150602081019050602083039250612f93565b6001836020036101000a0380198251168184511680821785525050505050509050019150509081526020016040518091039020600a01546005846040518082805190602001908083835b602083106130235780518252602082019150602081019050602083039250613000565b6001836020036101000a038019825116818451168082178552505050505050905001915050908152602001604051809103902060060154039081150290604051600060405180830381858888f19350505050158015613086573d6000803e3d6000fd5b505b60006005826040518082805190602001908083835b602083106130c0578051825260208201915060208101905060208303925061309d565b6001836020036101000a0380198251168184511680821785525050505050509050019150509081526020016040518091039020905060008160010160146101000a81548160ff0219169083600281111561311657fe5b0217905550806005836040518082805190602001908083835b60208310613152578051825260208201915060208101905060208303925061312f565b6001836020036101000a03801982511681845116808217855250505050505090500191505090815260200160405180910390206000820160009054906101000a900473ffffffffffffffffffffffffffffffffffffffff168160000160006101000a81548173ffffffffffffffffffffffffffffffffffffffff021916908373ffffffffffffffffffffffffffffffffffffffff1602179055506001820160009054906101000a900473ffffffffffffffffffffffffffffffffffffffff168160010160006101000a81548173ffffffffffffffffffffffffffffffffffffffff021916908373ffffffffffffffffffffffffffffffffffffffff1602179055506001820160149054906101000a900460ff168160010160146101000a81548160ff0219169083600281111561328457fe5b02179055506002820154816002015560038201548160030155600482018160040190805460018160011615610100020316600290046132c49291906142b4565b5060058201816005019080546132db929190614349565b5060068201548160060155600782015481600701556008820181600801908054613306929190614349565b50600982018160090190805461331d92919061439b565b50600a82015481600a015590505061333482614047565b5050565b6005816040518082805190602001908083835b6020831061336e578051825260208201915060208101905060208303925061334b565b6001836020036101000a038019825116818451168082178552505050505050905001915050908152602001604051809103902060000160009054906101000a900473ffffffffffffffffffffffffffffffffffffffff1673ffffffffffffffffffffffffffffffffffffffff163373ffffffffffffffffffffffffffffffffffffffff16146133fc57600080fd5b60028081111561340857fe5b6005826040518082805190602001908083835b6020831061343e578051825260208201915060208101905060208303925061341b565b6001836020036101000a038019825116818451168082178552505050505050905001915050908152602001604051809103902060010160149054906101000a900460ff16600281111561348d57fe5b1461349757600080fd5b6005816040518082805190602001908083835b602083106134cd57805182526020820191506020810190506020830392506134aa565b6001836020036101000a038019825116818451168082178552505050505050905001915050908152602001604051809103902060000160009054906101000a900473ffffffffffffffffffffffffffffffffffffffff1673ffffffffffffffffffffffffffffffffffffffff166108fc6005836040518082805190602001908083835b602083106135735780518252602082019150602081019050602083039250613550565b6001836020036101000a0380198251168184511680821785525050505050509050019150509081526020016040518091039020600601549081150290604051600060405180830381858888f193505050501580156135d5573d6000803e3d6000fd5b506135df81614047565b50565b600260003373ffffffffffffffffffffffffffffffffffffffff1673ffffffffffffffffffffffffffffffffffffffff16815260200190815260200160002060009054906101000a900460ff1661363857600080fd5b6000341161364557600080fd5b60005b82518110156136c7576003600084838151811061366157fe5b602002602001015173ffffffffffffffffffffffffffffffffffffffff1673ffffffffffffffffffffffffffffffffffffffff16815260200190815260200160002060009054906101000a900460ff166136ba57600080fd5b8080600101915050613648565b506136d06143ed565b33816000019073ffffffffffffffffffffffffffffffffffffffff16908173ffffffffffffffffffffffffffffffffffffffff168152505060028160400190600281111561371a57fe5b9081600281111561372757fe5b815250504281606001818152505084601e8042010101816080018181525050838160a00181905250828160c00181905250348160e001818152505081816101000181815250507fffffffffffffffffffffffffffffffffffffffffffffffffffffffffffffffff816101600181815250506004869080600181540180825580915050600190039060005260206000200160009091909190915090805190602001906137d3929190614485565b50806005876040518082805190602001908083835b6020831061380b57805182526020820191506020810190506020830392506137e8565b6001836020036101000a038019825116818451168082178552505050505050905001915050908152602001604051809103902060008201518160000160006101000a81548173ffffffffffffffffffffffffffffffffffffffff021916908373ffffffffffffffffffffffffffffffffffffffff16021790555060208201518160010160006101000a81548173ffffffffffffffffffffffffffffffffffffffff021916908373ffffffffffffffffffffffffffffffffffffffff16021790555060408201518160010160146101000a81548160ff021916908360028111156138f057fe5b0217905550606082015181600201556080820151816003015560a0820151816004019080519060200190613925929190614485565b5060c0820151816005019080519060200190613942929190614513565b5060e082015181600601556101008201518160070155610120820151816008019080519060200190613975929190614513565b5061014082015181600901908051906020019061399392919061459d565b5061016082015181600a0155905050505050505050565b60008054906101000a900473ffffffffffffffffffffffffffffffffffffffff1673ffffffffffffffffffffffffffffffffffffffff163373ffffffffffffffffffffffffffffffffffffffff1614613a0257600080fd5b60001515600360008373ffffffffffffffffffffffffffffffffffffffff1673ffffffffffffffffffffffffffffffffffffffff16815260200190815260200160002060009054906101000a900460ff1615151415613a6057600080fd5b6000600360008373ffffffffffffffffffffffffffffffffffffffff1673ffffffffffffffffffffffffffffffffffffffff16815260200190815260200160002060006101000a81548160ff02191690831515021790555050565b60008054906101000a900473ffffffffffffffffffffffffffffffffffffffff1673ffffffffffffffffffffffffffffffffffffffff163373ffffffffffffffffffffffffffffffffffffffff1614613b1357600080fd5b60001515600160008373ffffffffffffffffffffffffffffffffffffffff1673ffffffffffffffffffffffffffffffffffffffff16815260200190815260200160002060009054906101000a900460ff1615151415613b7157600080fd5b6000600160008373ffffffffffffffffffffffffffffffffffffffff1673ffffffffffffffffffffffffffffffffffffffff16815260200190815260200160002060006101000a81548160ff02191690831515021790555050565b606060068054600181600116156101000203166002900480601f016020809104026020016040519081016040528092919081815260200182805460018160011615610100020316600290048015613c645780601f10613c3957610100808354040283529160200191613c64565b820191906000526020600020905b815481529060010190602001808311613c4757829003601f168201915b5050505050905090565b60048181548110613c7e57600080fd5b906000526020600020016000915090508054600181600116156101000203166002900480601f016020809104026020016040519081016040528092919081815260200182805460018160011615610100020316600290048015613d225780601f10613cf757610100808354040283529160200191613d22565b820191906000526020600020905b815481529060010190602001808311613d0557829003601f168201915b505050505081565b60008054906101000a900473ffffffffffffffffffffffffffffffffffffffff1673ffffffffffffffffffffffffffffffffffffffff163373ffffffffffffffffffffffffffffffffffffffff1614613d8257600080fd5b60011515600260008373ffffffffffffffffffffffffffffffffffffffff1673ffffffffffffffffffffffffffffffffffffffff16815260200190815260200160002060009054906101000a900460ff1615151415613de057600080fd5b6001600260008373ffffffffffffffffffffffffffffffffffffffff1673ffffffffffffffffffffffffffffffffffffffff16815260200190815260200160002060006101000a81548160ff02191690831515021790555050565b60606000821415613e83576040518060400160405280600181526020017f30000000000000000000000000000000000000000000000000000000000000008152509050613f7a565b600082905060005b60008214613ead578080600101915050600a8281613ea557fe5b049150613e8b565b60008167ffffffffffffffff81118015613ec657600080fd5b506040519080825280601f01601f191660200182016040528015613ef95781602001600182028036833780820191505090505b50905060006001830390505b60008614613f7257600a8681613f1757fe5b0660300160f81b82828060019003935081518110613f3157fe5b60200101907effffffffffffffffffffffffffffffffffffffffffffffffffffffffffffff1916908160001a905350600a8681613f6a57fe5b049550613f05565b819450505050505b919050565b606082826040516020018083805190602001908083835b60208310613fb95780518252602082019150602081019050602083039250613f96565b6001836020036101000a03801982511681845116808217855250505050505090500182805190602001908083835b6020831061400a5780518252602082019150602081019050602083039250613fe7565b6001836020036101000a03801982511681845116808217855250505050505090500192505050604051602081830303815290604052905092915050565b60005b60048054905081101561423557816040516020018080602001828103825283818151815260200191508051906020019080838360005b8381101561409b578082015181840152602081019050614080565b50505050905090810190601f1680156140c85780820380516001836020036101000a031916815260200191505b509250505060405160208183030381529060405280519060200120600482815481106140f057fe5b9060005260206000200160405160200180806020018281038252838181546001816001161561010002031660029004815260200191508054600181600116156101000203166002900480156141865780601f1061415b57610100808354040283529160200191614186565b820191906000526020600020905b81548152906001019060200180831161416957829003601f168201915b505092505050604051602081830303815290604052805190602001201415614228576004600160048054905003815481106141bd57fe5b90600052602060002001600482815481106141d457fe5b9060005260206000200190805460018160011615610100020316600290046141fd9291906145ea565b50600480548061420957fe5b600190038181906000526020600020016000614225919061467f565b90555b808060010191505061404a565b5050565b600080600090505b83518110156142a8578273ffffffffffffffffffffffffffffffffffffffff1684828151811061426d57fe5b602002602001015173ffffffffffffffffffffffffffffffffffffffff16141561429b5760019150506142ae565b8080600101915050614241565b50600090505b92915050565b828054600181600116156101000203166002900490600052602060002090601f0160209004810192826142ea5760008555614338565b82601f106142fb5780548555614338565b8280016001018555821561433857600052602060002091601f016020900482015b8281111561433757825482559160010191906001019061431c565b5b50905061434591906146c7565b5090565b82805482825590600052602060002090810192821561438a5760005260206000209182015b8281111561438957825482559160010191906001019061436e565b5b50905061439791906146c7565b5090565b8280548282559060005260206000209081019282156143dc5760005260206000209182015b828111156143db5782548255916001019190600101906143c0565b5b5090506143e991906146e4565b5090565b604051806101800160405280600073ffffffffffffffffffffffffffffffffffffffff168152602001600073ffffffffffffffffffffffffffffffffffffffff1681526020016000600281111561444057fe5b81526020016000815260200160008152602001606081526020016060815260200160008152602001600081526020016060815260200160608152602001600081525090565b828054600181600116156101000203166002900490600052602060002090601f0160209004810192826144bb5760008555614502565b82601f106144d457805160ff1916838001178555614502565b82800160010185558215614502579182015b828111156145015782518255916020019190600101906144e6565b5b50905061450f91906146c7565b5090565b82805482825590600052602060002090810192821561458c579160200282015b8281111561458b5782518260006101000a81548173ffffffffffffffffffffffffffffffffffffffff021916908373ffffffffffffffffffffffffffffffffffffffff16021790555091602001919060010190614533565b5b50905061459991906146c7565b5090565b8280548282559060005260206000209081019282156145d9579160200282015b828111156145d85782518255916020019190600101906145bd565b5b5090506145e691906146e4565b5090565b828054600181600116156101000203166002900490600052602060002090601f016020900481019282614620576000855561466e565b82601f10614631578054855561466e565b8280016001018555821561466e57600052602060002091601f016020900482015b8281111561466d578254825591600101919060010190614652565b5b50905061467b91906146c7565b5090565b50805460018160011615610100020316600290046000825580601f106146a557506146c4565b601f0160209004906000526020600020908101906146c391906146c7565b5b50565b5b808211156146e05760008160009055506001016146c8565b5090565b5b808211156146fd5760008160009055506001016146e5565b509056fe5061696420616d6f756e74206973206e6f7420657175616c20746f207468652072657175697265642070656e616c747920616d6f756e745468652072657665616c20706572696f6420686173206e6f74207965742073746172746564426f756e7479206973206e6f7420726561647920746f20626520636c61696d65642079657453656e6465722068617320616c7265616479207375626d6974746564206120626964546865206269642076616c756520646f6573206e6f74206d61746368207468652068617368a264697066735822122043ffb544f21bfecd77d86421ef48b312aef5e5142147f2e48c64ca4c170ffeb164736f6c63430007060033",
  "immutableReferences": {},
  "source": "pragma solidity ^0.7.0;\r\n\r\n// SPDX-License-Identifier: UNLICENSED\r\n\r\ncontract AmbulanceBounties {\r\n    \r\n    // 30 second long bid window for ambulances to place their bids (for testing)\r\n    uint constant BID_PERIOD_LENGTH = 30;\r\n    // 30 second long reveal window for ambulances to verify their bids (for testing)\r\n    uint constant REVEAL_PERIOD_LENGTH = 30;\r\n    \r\n    // Required length for the salt used in hashing bids\r\n    uint constant SALT_LENGTH = 10;\r\n    \r\n    uint256 constant MAX_INT = 2**256 - 1;\r\n    \r\n    \r\n    address admin;\r\n    \r\n    // We map addresses to their permissions. If an address maps to true, that means it is verified as that role.\r\n    // Using a mapping instead of an array for these roles gives us O(1) insertion, deletion, and lookup since we can simply set the value to false to remove them.\r\n    // However, we cannot get a list of all keys in the mapping without also storing an array of the keys. If this is necessary, then we\r\n    // should abandon the mapping idea.\r\n    mapping(address => bool) ambulances;\r\n    mapping(address => bool) policeStations;\r\n    mapping(address => bool) hospitals;\r\n    \r\n    // Closed is the first option in the enum so that it is the default option\r\n    enum BountyStatus {Closed, InProgress, Open}\r\n    \r\n    struct Bounty {\r\n        address payable bountyPoster;\r\n        address payable bountyAccepter;\r\n        BountyStatus status;\r\n        \r\n        uint postDate;\r\n        uint dueDate;\r\n        // Should be a string that represents the coordinates of the patient, compliant with ISO 6709\r\n        string location;\r\n        address[] allowedHospitals;\r\n        \r\n        uint maxBid;\r\n        uint penalty;\r\n        \r\n        // Maps an address to its bid. This enforces one bid per address, so that ambulances do not just bid as many prices as they can, and then reveal lower and lower bids during the reveal period.\r\n        // We use 2 arrays because we can't have nested mappings in Solidity.\r\n        address[] bidders;\r\n        bytes32[] hashedBids;\r\n        \r\n        uint finalBid;\r\n        \r\n    }\r\n    \r\n    // Note: We maintain an array so that we can see all bounties, and a mapping for fast bounty information lookup\r\n    // The string is the \"ID\" of the bounty, and the Bounty object is the actual object. Together, these two data structures form something like a Set data structure.\r\n    string[] public bounties;\r\n    mapping(string => Bounty) public bountyMapping;\r\n    \r\n    constructor() {\r\n        admin = msg.sender;\r\n    }\r\n    \r\n    // constructor(address[] memory a, address[] memory p, address[] memory h) {\r\n    //     admin = msg.sender;\r\n        \r\n    //     for (uint i = 0; i < a.length; i++) {\r\n    //         ambulances[a[i]] = true;\r\n    //     }\r\n        \r\n    //     for (uint i = 0; i < p.length; i++) {\r\n    //         policeStations[p[i]] = true;\r\n    //     }\r\n        \r\n    //     for (uint i = 0; i < h.length; i++) {\r\n    //         hospitals[h[i]] = true;\r\n    //     }\r\n        \r\n    // }\r\n   string greeting = 'Hello World';\r\n    function greet() public view returns (string memory) {\r\n      \r\n      return greeting;\r\n    }\r\n    \r\n    // timeLimit is how long the ambulances have to deliver the patient, not including bid and reveal times.\r\n    function postBounty (string memory hash, uint timeLimit, string memory location, address[] memory allowedHospitals, uint penalty) public payable  {\r\n        require(policeStations[msg.sender]);\r\n        require(msg.value > 0);\r\n        for (uint i = 0; i < allowedHospitals.length; i++) {\r\n            require(hospitals[allowedHospitals[i]]);\r\n        }\r\n        \r\n        \r\n        // The reason we make a new object has something to do with Solidity and how it treats the memory keyword\r\n        Bounty memory newBounty;\r\n        newBounty.bountyPoster = msg.sender;\r\n        newBounty.status = BountyStatus.Open;\r\n        newBounty.postDate = block.timestamp;\r\n        newBounty.dueDate = block.timestamp + BID_PERIOD_LENGTH + REVEAL_PERIOD_LENGTH + timeLimit;\r\n        newBounty.location = location;\r\n        newBounty.allowedHospitals = allowedHospitals;\r\n        newBounty.maxBid = msg.value;\r\n        newBounty.penalty = penalty;\r\n        newBounty.finalBid = MAX_INT;\r\n        \r\n        bounties.push(hash);\r\n        bountyMapping[hash] = newBounty;\r\n        \r\n    }\r\n    \r\n    // Unfortunately, we force the ambulances to iterate over the whole list of bidders when they want to bid.\r\n    // This can be fixed by not storing all of the bounty information on the blockchain.\r\n    // The hashed amount should be an amount in wei + a 10 digit salt. Note that if the bounty is hashed with a salt that is not 10 digits long, the bid will be invalid.\r\n    // This value should then be encoded from a string to a hex value using abi.encode, and then passed through the keccak256 hash function (hex input)\r\n    function bid (string memory hash, bytes32 hashedAmount) public returns (uint index) {\r\n        require(ambulances[msg.sender], \"Sender not authorized\");\r\n        require(bountyMapping[hash].status == BountyStatus.Open, \"This bounty is not open\");\r\n        require(block.timestamp < bountyMapping[hash].postDate + BID_PERIOD_LENGTH, \"The bidding period is over\");\r\n        require(!contains(bountyMapping[hash].bidders, msg.sender), \"Sender has already submitted a bid\");\r\n\r\n        bountyMapping[hash].bidders.push(msg.sender);\r\n        bountyMapping[hash].hashedBids.push(hashedAmount);\r\n        return bountyMapping[hash].bidders.length - 1;\r\n    }\r\n    \r\n    \r\n    // We can make this payable and add a penalty or something later\r\n    // Currently, if two ambulances made the same bid, the one that reveals its bid first will win\r\n    function revealBid (string memory hash, uint bidValue, uint salt, uint index) public payable {\r\n        // Sender must be ambulance\r\n        require(ambulances[msg.sender], \"Sender not authorized\");\r\n        // Must be in the reveal period\r\n        require(block.timestamp < bountyMapping[hash].postDate + BID_PERIOD_LENGTH + REVEAL_PERIOD_LENGTH, \"The reveal period is over\");\r\n        require(block.timestamp >= bountyMapping[hash].postDate + BID_PERIOD_LENGTH, \"The reveal period has not yet started\");\r\n        // Bounty must be open (i.e. not retracted)\r\n        require(bountyMapping[hash].status == BountyStatus.Open, \"This bounty is not open\");\r\n        // Bid must be less than the current lowest bid\r\n        require(bidValue < bountyMapping[hash].finalBid, \"This bid is too high\");\r\n        // Bid must be less than the current lowest bid\r\n        require(bidValue < bountyMapping[hash].maxBid, \"This bid is too high\");\r\n        // Revealer must provide the correct id for the bidder list\r\n        require(msg.sender == bountyMapping[hash].bidders[index], \"Wrong index in bidder list\");\r\n        \r\n        // Sender must pay the penalty amount to reveal the bid, which will be refunded on job completion\r\n        require(bountyMapping[hash].penalty == msg.value, \"Paid amount is not equal to the required penalty amount\");\r\n        // Salt must be 10 digits long\r\n        require(bytes(uint2str(salt)).length == SALT_LENGTH, \"Salt is not the correct length\");\r\n        // Hashed bid must match the bid value.\r\n        // 0x + keccak256 of the abi.encoded value is what the client should pass as the hashed bid. For the bidvalue, they can just pass regular (unpadded) wei values\r\n        require(bountyMapping[hash].hashedBids[index] == keccak256(abi.encode(append(uint2str(bidValue), uint2str(salt)))), \"The bid value does not match the hash\");\r\n        \r\n        Bounty storage referencedBounty = bountyMapping[hash];\r\n        \r\n        // If we already assigned someone to take the job earlier in the reveal period, refund that ambulance's penalty since they no longer have the job\r\n        if (referencedBounty.bountyAccepter != address(0)) {\r\n            referencedBounty.bountyAccepter.transfer(bountyMapping[hash].penalty);\r\n        }\r\n        \r\n        referencedBounty.status = BountyStatus.InProgress;\r\n        referencedBounty.bountyAccepter = msg.sender;\r\n        referencedBounty.finalBid = bidValue;\r\n        \r\n        bountyMapping[hash] = referencedBounty;\r\n        \r\n    }\r\n    \r\n    \r\n    function verifyDelivery (string memory hash) public {\r\n        require(hospitals[msg.sender], \"Sender not authorized\");\r\n        require(bountyMapping[hash].status == BountyStatus.InProgress, \"Bounty not in progress\");\r\n        require(block.timestamp > bountyMapping[hash].postDate + BID_PERIOD_LENGTH + REVEAL_PERIOD_LENGTH, \"Bounty is not ready to be claimed yet\");\r\n        require(block.timestamp < bountyMapping[hash].dueDate, \"Bounty has expired\");\r\n        require(contains(bountyMapping[hash].allowedHospitals, msg.sender));\r\n        \r\n        bountyMapping[hash].bountyAccepter.transfer(bountyMapping[hash].finalBid + bountyMapping[hash].penalty);\r\n        \r\n        if (bountyMapping[hash].maxBid - bountyMapping[hash].finalBid > 0) {\r\n            bountyMapping[hash].bountyPoster.transfer(bountyMapping[hash].maxBid - bountyMapping[hash].finalBid);\r\n        }\r\n        \r\n        Bounty storage referencedBounty = bountyMapping[hash];\r\n        \r\n        referencedBounty.status = BountyStatus.Closed;\r\n        \r\n        bountyMapping[hash] = referencedBounty;\r\n        \r\n        removeBounty(hash);\r\n    }\r\n    \r\n    // Allows police stations to reclaim their funds + the penalty for failed jobs\r\n    function reclaimBounty(string memory hash) public {\r\n        require(bountyMapping[hash].bountyPoster == msg.sender);\r\n        require(bountyMapping[hash].status == BountyStatus.InProgress);\r\n        require(bountyMapping[hash].bountyAccepter != address(0));\r\n        require(bountyMapping[hash].dueDate > block.timestamp);\r\n        \r\n        bountyMapping[hash].bountyPoster.transfer(bountyMapping[hash].maxBid + bountyMapping[hash].penalty);\r\n        \r\n        \r\n        removeBounty(hash);\r\n    }\r\n    \r\n    \r\n    function retractBounty (string memory hash) public {\r\n        require(msg.sender == bountyMapping[hash].bountyPoster);\r\n        require(bountyMapping[hash].status == BountyStatus.Open);\r\n        \r\n        bountyMapping[hash].bountyPoster.transfer(bountyMapping[hash].maxBid);\r\n        \r\n        removeBounty(hash);\r\n    }\r\n    \r\n    \r\n    function removeBounty (string memory hash) private {\r\n        // Delete doesn't preserve order, but we can at the cost of more processing\r\n        for (uint i = 0; i < bounties.length; i++) {\r\n            // Comparing the strings\r\n            if (keccak256(abi.encode(bounties[i])) == keccak256(abi.encode(hash))) {\r\n                bounties[i] = bounties[bounties.length - 1];\r\n                bounties.pop();\r\n            }\r\n        }\r\n        \r\n        // If we can assume that the bounty ids (the hashes that go into bountyMapping) are properly generated,\r\n        // we don't have to delete any data from the bountyMapping\r\n    }\r\n    \r\n    \r\n    // Allows the admin to add verified ambulances\r\n    function addAmbulance (address ambulance) public {\r\n        require(msg.sender == admin);\r\n        require(ambulances[ambulance] != true);\r\n        ambulances[ambulance] = true;\r\n    }\r\n    \r\n    // Allows the admin to remove verified ambulances\r\n    function removeAmbulance (address ambulance) public {\r\n        require(msg.sender == admin);\r\n        require(ambulances[ambulance] != false);\r\n        ambulances[ambulance] = false;\r\n    }\r\n    \r\n    // Allows the admin to add verified police stations\r\n    function addPolice (address police) public {\r\n        require(msg.sender == admin);\r\n        require(policeStations[police] != true);\r\n        policeStations[police] = true;\r\n    }\r\n    \r\n    // Allows the admin to remove verified police stations\r\n    function removePolice (address police) public {\r\n        require(msg.sender == admin);\r\n        require(policeStations[police] != false);\r\n        policeStations[police] = false;\r\n    }\r\n    \r\n    // Allows the admin to add verified hospitals\r\n    function addHospital (address hospital) public {\r\n        require(msg.sender == admin);\r\n        require(hospitals[hospital] != true);\r\n        hospitals[hospital] = true;\r\n    }\r\n    \r\n    // Allows the admin to remove verified hospitals\r\n    function removeHospital (address hospital) public {\r\n        require(msg.sender == admin);\r\n        require(hospitals[hospital] != false);\r\n        hospitals[hospital] = false;\r\n    }\r\n    \r\n    \r\n    // This sucks, but it's one of the consequences of storing everything on the blockchain\r\n    function contains (address[] memory addresses, address addressToFind) private pure returns (bool doesContain) {\r\n        for (uint i = 0; i < addresses.length; i++) {\r\n            if (addresses[i] == addressToFind) {\r\n                return true;\r\n            }\r\n        }\r\n        return false;\r\n    }\r\n    \r\n    \r\n    function uint2str(uint _i) internal pure returns (string memory _uintAsString) {\r\n        if (_i == 0) {\r\n            return \"0\";\r\n        }\r\n        uint j = _i;\r\n        uint len;\r\n        while (j != 0) {\r\n            len++;\r\n            j /= 10;\r\n        }\r\n        bytes memory bstr = new bytes(len);\r\n        uint k = len - 1;\r\n        while (_i != 0) {\r\n            bstr[k--] = byte(uint8(48 + _i % 10));\r\n            _i /= 10;\r\n        }\r\n        return string(bstr);\r\n    }\r\n    \r\n    function append(string memory a, string memory b) internal pure returns (string memory) {\r\n\r\n        return string(abi.encodePacked(a, b));\r\n\r\n    }\r\n    \r\n}",
  "sourcePath": "C:/Users/sg701/source/repos/AmbulanceReact/contracts/AmbulanceBounties.sol",
  "compiler": {
    "name": "solc",
    "version": "0.7.6+commit.7338295f.Emscripten.clang"
  },
  "schemaVersion": "3.3.3",
  "updatedAt": "2021-05-01T16:30:03.190Z",
  "networkType": "ethereum",
  "devdoc": {
    "kind": "dev",
    "methods": {},
    "version": 1
  },
  "userdoc": {
    "kind": "user",
    "methods": {},
    "version": 1
  }
}